{"abi":[{"type":"function","name":"ensName","inputs":[{"name":"","type":"address","internalType":"address"}],"outputs":[{"name":"","type":"string","internalType":"string"}],"stateMutability":"view"},{"type":"function","name":"setENS","inputs":[{"name":"name","type":"string","internalType":"string"}],"outputs":[],"stateMutability":"nonpayable"},{"type":"event","name":"ProfileUpdated","inputs":[{"name":"user","type":"address","indexed":true,"internalType":"address"},{"name":"ens","type":"string","indexed":false,"internalType":"string"}],"anonymous":false}],"bytecode":{"object":"0x6080604052348015600e575f5ffd5b506107238061001c5f395ff3fe608060405234801561000f575f5ffd5b5060043610610034575f3560e01c8063cd7a1f9214610038578063d2400ea914610054575b5f5ffd5b610052600480360381019061004d9190610227565b610084565b005b61006e600480360381019061006991906102cc565b610124565b60405161007b9190610367565b60405180910390f35b81815f5f3373ffffffffffffffffffffffffffffffffffffffff1673ffffffffffffffffffffffffffffffffffffffff1681526020019081526020015f2091826100cf9291906105c4565b503373ffffffffffffffffffffffffffffffffffffffff167fdd635a4cd84864e37e4479dbfc2ec667acfa473c83c8422a8ac9d9d07599b01c83836040516101189291906106cb565b60405180910390a25050565b5f602052805f5260405f205f91509050805461013f906103eb565b80601f016020809104026020016040519081016040528092919081815260200182805461016b906103eb565b80156101b65780601f1061018d576101008083540402835291602001916101b6565b820191905f5260205f20905b81548152906001019060200180831161019957829003601f168201915b505050505081565b5f5ffd5b5f5ffd5b5f5ffd5b5f5ffd5b5f5ffd5b5f5f83601f8401126101e7576101e66101c6565b5b8235905067ffffffffffffffff811115610204576102036101ca565b5b6020830191508360018202830111156102205761021f6101ce565b5b9250929050565b5f5f6020838503121561023d5761023c6101be565b5b5f83013567ffffffffffffffff81111561025a576102596101c2565b5b610266858286016101d2565b92509250509250929050565b5f73ffffffffffffffffffffffffffffffffffffffff82169050919050565b5f61029b82610272565b9050919050565b6102ab81610291565b81146102b5575f5ffd5b50565b5f813590506102c6816102a2565b92915050565b5f602082840312156102e1576102e06101be565b5b5f6102ee848285016102b8565b91505092915050565b5f81519050919050565b5f82825260208201905092915050565b8281835e5f83830152505050565b5f601f19601f8301169050919050565b5f610339826102f7565b6103438185610301565b9350610353818560208601610311565b61035c8161031f565b840191505092915050565b5f6020820190508181035f83015261037f818461032f565b905092915050565b5f82905092915050565b7f4e487b71000000000000000000000000000000000000000000000000000000005f52604160045260245ffd5b7f4e487b71000000000000000000000000000000000000000000000000000000005f52602260045260245ffd5b5f600282049050600182168061040257607f821691505b602082108103610415576104146103be565b5b50919050565b5f819050815f5260205f209050919050565b5f6020601f8301049050919050565b5f82821b905092915050565b5f600883026104777fffffffffffffffffffffffffffffffffffffffffffffffffffffffffffffffff8261043c565b610481868361043c565b95508019841693508086168417925050509392505050565b5f819050919050565b5f819050919050565b5f6104c56104c06104bb84610499565b6104a2565b610499565b9050919050565b5f819050919050565b6104de836104ab565b6104f26104ea826104cc565b848454610448565b825550505050565b5f5f905090565b6105096104fa565b6105148184846104d5565b505050565b5b818110156105375761052c5f82610501565b60018101905061051a565b5050565b601f82111561057c5761054d8161041b565b6105568461042d565b81016020851015610565578190505b6105796105718561042d565b830182610519565b50505b505050565b5f82821c905092915050565b5f61059c5f1984600802610581565b1980831691505092915050565b5f6105b4838361058d565b9150826002028217905092915050565b6105ce8383610387565b67ffffffffffffffff8111156105e7576105e6610391565b5b6105f182546103eb565b6105fc82828561053b565b5f601f831160018114610629575f8415610617578287013590505b61062185826105a9565b865550610688565b601f1984166106378661041b565b5f5b8281101561065e57848901358255600182019150602085019450602081019050610639565b8683101561067b5784890135610677601f89168261058d565b8355505b6001600288020188555050505b50505050505050565b828183375f83830152505050565b5f6106aa8385610301565b93506106b7838584610691565b6106c08361031f565b840190509392505050565b5f6020820190508181035f8301526106e481848661069f565b9050939250505056fea2646970667358221220236a37a246ddbee075b2a52f226826f7354e54fbb43eb17439fd348d048eb86364736f6c634300081e0033","linkReferences":{}},"methodIdentifiers":{"ensName(address)":"d2400ea9","setENS(string)":"cd7a1f92"},"id":2}