{"abi":[{"type":"function","name":"grantReader","inputs":[{"name":"id","type":"uint256","internalType":"uint256"},{"name":"reader","type":"address","internalType":"address"}],"outputs":[],"stateMutability":"nonpayable"},{"type":"function","name":"makePublic","inputs":[{"name":"id","type":"uint256","internalType":"uint256"}],"outputs":[],"stateMutability":"nonpayable"},{"type":"function","name":"meta","inputs":[{"name":"id","type":"uint256","internalType":"uint256"}],"outputs":[{"name":"sender","type":"address","internalType":"address"},{"name":"chatId","type":"uint256","internalType":"uint256"},{"name":"ts","type":"uint256","internalType":"uint256"}],"stateMutability":"view"},{"type":"function","name":"postEncrypted","inputs":[{"name":"chatId","type":"uint256","internalType":"uint256"},{"name":"encContentRef","type":"bytes32","internalType":"externalEuint64"}],"outputs":[{"name":"id","type":"uint256","internalType":"uint256"}],"stateMutability":"nonpayable"},{"type":"function","name":"size","inputs":[],"outputs":[{"name":"","type":"uint256","internalType":"uint256"}],"stateMutability":"view"},{"type":"event","name":"EncryptedMessagePosted","inputs":[{"name":"id","type":"uint256","indexed":true,"internalType":"uint256"},{"name":"chatId","type":"uint256","indexed":true,"internalType":"uint256"},{"name":"sender","type":"address","indexed":true,"internalType":"address"}],"anonymous":false},{"type":"event","name":"PublicCiphertext","inputs":[{"name":"id","type":"uint256","indexed":true,"internalType":"uint256"},{"name":"payload","type":"bytes","indexed":false,"internalType":"bytes"}],"anonymous":false}],"bytecode":{"object":"0x608060405234801561000f575f5ffd5b5061002c61002161004d60201b60201c565b61012360201b60201c565b61004861003d61013560201b60201c565b61015060201b60201c565b6103ad565b610055610331565b604051806080016040528073687820221192c5b662b25367f70076a37bc79b6c73ffffffffffffffffffffffffffffffffffffffff16815260200173848b0066793bcc60346da1f49049357399b8d59573ffffffffffffffffffffffffffffffffffffffff168152602001731364cbbf2cdf5032c47d8226a6f6fbd2afcdacac73ffffffffffffffffffffffffffffffffffffffff16815260200173bc91f3dad1a5f19f8390c400196e58073b6a0bc473ffffffffffffffffffffffffffffffffffffffff16815250905090565b6101328161016260201b60201c565b50565b5f73a02cda4ca3a71d7c46997716f4283aa851c28812905090565b61015f8161028d60201b60201c565b50565b5f6101716102e360201b60201c565b9050815f0151815f015f6101000a81548173ffffffffffffffffffffffffffffffffffffffff021916908373ffffffffffffffffffffffffffffffffffffffff1602179055508160200151816001015f6101000a81548173ffffffffffffffffffffffffffffffffffffffff021916908373ffffffffffffffffffffffffffffffffffffffff1602179055508160400151816002015f6101000a81548173ffffffffffffffffffffffffffffffffffffffff021916908373ffffffffffffffffffffffffffffffffffffffff1602179055508160600151816003015f6101000a81548173ffffffffffffffffffffffffffffffffffffffff021916908373ffffffffffffffffffffffffffffffffffffffff1602179055505050565b5f61029c61030a60201b60201c565b905081815f015f6101000a81548173ffffffffffffffffffffffffffffffffffffffff021916908373ffffffffffffffffffffffffffffffffffffffff1602179055505050565b5f7fed8d60e34876f751cc8b014c560745351147d9de11b9347c854e881b128ea600905090565b5f7f5ea69329017273582817d320489fbd94f775580e90c092699ca6f3d12fdf7d00905090565b60405180608001604052805f73ffffffffffffffffffffffffffffffffffffffff1681526020015f73ffffffffffffffffffffffffffffffffffffffff1681526020015f73ffffffffffffffffffffffffffffffffffffffff1681526020015f73ffffffffffffffffffffffffffffffffffffffff1681525090565b610e74806103ba5f395ff3fe608060405234801561000f575f5ffd5b5060043610610055575f3560e01c8063602be6b21461005957806370f4616d14610075578063949d225d14610091578063acd8ee49146100af578063cd5cfdaf146100df575b5f5ffd5b610073600480360381019061006e919061090f565b610111565b005b61008f600480360381019061008a919061094d565b610236565b005b61009961039f565b6040516100a69190610987565b60405180910390f35b6100c960048036038101906100c491906109d3565b6103aa565b6040516100d69190610987565b60405180910390f35b6100f960048036038101906100f4919061094d565b6104db565b60405161010893929190610a20565b60405180910390f35b5f805490508210610157576040517f08c379a000000000000000000000000000000000000000000000000000000000815260040161014e90610aaf565b60405180910390fd5b3373ffffffffffffffffffffffffffffffffffffffff165f838154811061018157610180610acd565b5b905f5260205f2090600402015f015f9054906101000a900473ffffffffffffffffffffffffffffffffffffffff1673ffffffffffffffffffffffffffffffffffffffff1614610205576040517f08c379a00000000000000000000000000000000000000000000000000000000081526004016101fc90610b44565b60405180910390fd5b6102315f838154811061021b5761021a610acd565b5b905f5260205f209060040201600301548261053b565b505050565b5f80549050811061027c576040517f08c379a000000000000000000000000000000000000000000000000000000000815260040161027390610aaf565b60405180910390fd5b3373ffffffffffffffffffffffffffffffffffffffff165f82815481106102a6576102a5610acd565b5b905f5260205f2090600402015f015f9054906101000a900473ffffffffffffffffffffffffffffffffffffffff1673ffffffffffffffffffffffffffffffffffffffff161461032a576040517f08c379a000000000000000000000000000000000000000000000000000000000815260040161032190610b44565b60405180910390fd5b6103555f82815481106103405761033f610acd565b5b905f5260205f2090600402016003015461054f565b50807f610483db3d869d8140421b68641982f55a2b32573ae4227bdc4791dde93fdba660405180602001604052805f8152506040516103949190610bd2565b60405180910390a250565b5f5f80549050905090565b5f5f6103c48360405180602001604052805f815250610561565b90505f8054905091505f60405180608001604052803373ffffffffffffffffffffffffffffffffffffffff16815260200186815260200142815260200183815250908060018154018082558091505060019003905f5260205f2090600402015f909190919091505f820151815f015f6101000a81548173ffffffffffffffffffffffffffffffffffffffff021916908373ffffffffffffffffffffffffffffffffffffffff16021790555060208201518160010155604082015181600201556060820151816003015550503373ffffffffffffffffffffffffffffffffffffffff1684837f6c36a051197b9eb4b6f87a696c2b1b0c6c625f5f9f878eda76345a598b3629e160405160405180910390a45092915050565b5f5f5f5f5f85815481106104f2576104f1610acd565b5b905f5260205f2090600402019050805f015f9054906101000a900473ffffffffffffffffffffffffffffffffffffffff1681600101548260020154935093509350509193909250565b5f6105468383610576565b82905092915050565b5f61055982610610565b819050919050565b5f61056e83836005610715565b905092915050565b5f61057f610857565b9050805f015f9054906101000a900473ffffffffffffffffffffffffffffffffffffffff1673ffffffffffffffffffffffffffffffffffffffff1663b9496b6284846040518363ffffffff1660e01b81526004016105de929190610c01565b5f604051808303815f87803b1580156105f5575f5ffd5b505af1158015610607573d5f5f3e3d5ffd5b50505050505050565b5f610619610857565b90505f600167ffffffffffffffff81111561063757610636610c28565b5b6040519080825280602002602001820160405280156106655781602001602082028036833780820191505090505b50905082815f8151811061067c5761067b610acd565b5b602002602001018181525050815f015f9054906101000a900473ffffffffffffffffffffffffffffffffffffffff1673ffffffffffffffffffffffffffffffffffffffff1663fadd2246826040518263ffffffff1660e01b81526004016106e39190610d0c565b5f604051808303815f87803b1580156106fa575f5ffd5b505af115801561070c573d5f5f3e3d5ffd5b50505050505050565b5f5f61071f610857565b9050806001015f9054906101000a900473ffffffffffffffffffffffffffffffffffffffff1673ffffffffffffffffffffffffffffffffffffffff1663196d0b9b863387876040518563ffffffff1660e01b81526004016107839493929190610d9f565b6020604051808303815f875af115801561079f573d5f5f3e3d5ffd5b505050506040513d601f19601f820116820180604052508101906107c39190610e13565b9150805f015f9054906101000a900473ffffffffffffffffffffffffffffffffffffffff1673ffffffffffffffffffffffffffffffffffffffff16633e395cec83336040518363ffffffff1660e01b8152600401610822929190610c01565b5f604051808303815f87803b158015610839575f5ffd5b505af115801561084b573d5f5f3e3d5ffd5b50505050509392505050565b5f7fed8d60e34876f751cc8b014c560745351147d9de11b9347c854e881b128ea600905090565b5f5ffd5b5f819050919050565b61089481610882565b811461089e575f5ffd5b50565b5f813590506108af8161088b565b92915050565b5f73ffffffffffffffffffffffffffffffffffffffff82169050919050565b5f6108de826108b5565b9050919050565b6108ee816108d4565b81146108f8575f5ffd5b50565b5f81359050610909816108e5565b92915050565b5f5f604083850312156109255761092461087e565b5b5f610932858286016108a1565b9250506020610943858286016108fb565b9150509250929050565b5f602082840312156109625761096161087e565b5b5f61096f848285016108a1565b91505092915050565b61098181610882565b82525050565b5f60208201905061099a5f830184610978565b92915050565b5f819050919050565b6109b2816109a0565b81146109bc575f5ffd5b50565b5f813590506109cd816109a9565b92915050565b5f5f604083850312156109e9576109e861087e565b5b5f6109f6858286016108a1565b9250506020610a07858286016109bf565b9150509250929050565b610a1a816108d4565b82525050565b5f606082019050610a335f830186610a11565b610a406020830185610978565b610a4d6040830184610978565b949350505050565b5f82825260208201905092915050565b7f62616420696400000000000000000000000000000000000000000000000000005f82015250565b5f610a99600683610a55565b9150610aa482610a65565b602082019050919050565b5f6020820190508181035f830152610ac681610a8d565b9050919050565b7f4e487b71000000000000000000000000000000000000000000000000000000005f52603260045260245ffd5b7f6f6e6c792073656e6465720000000000000000000000000000000000000000005f82015250565b5f610b2e600b83610a55565b9150610b3982610afa565b602082019050919050565b5f6020820190508181035f830152610b5b81610b22565b9050919050565b5f81519050919050565b5f82825260208201905092915050565b8281835e5f83830152505050565b5f601f19601f8301169050919050565b5f610ba482610b62565b610bae8185610b6c565b9350610bbe818560208601610b7c565b610bc781610b8a565b840191505092915050565b5f6020820190508181035f830152610bea8184610b9a565b905092915050565b610bfb816109a0565b82525050565b5f604082019050610c145f830185610bf2565b610c216020830184610a11565b9392505050565b7f4e487b71000000000000000000000000000000000000000000000000000000005f52604160045260245ffd5b5f81519050919050565b5f82825260208201905092915050565b5f819050602082019050919050565b610c87816109a0565b82525050565b5f610c988383610c7e565b60208301905092915050565b5f602082019050919050565b5f610cba82610c55565b610cc48185610c5f565b9350610ccf83610c6f565b805f5b83811015610cff578151610ce68882610c8d565b9750610cf183610ca4565b925050600181019050610cd2565b5085935050505092915050565b5f6020820190508181035f830152610d248184610cb0565b905092915050565b7f4e487b71000000000000000000000000000000000000000000000000000000005f52602160045260245ffd5b60548110610d6a57610d69610d2c565b5b50565b5f819050610d7a82610d59565b919050565b5f610d8982610d6d565b9050919050565b610d9981610d7f565b82525050565b5f608082019050610db25f830187610bf2565b610dbf6020830186610a11565b8181036040830152610dd18185610b9a565b9050610de06060830184610d90565b95945050505050565b610df2816109a0565b8114610dfc575f5ffd5b50565b5f81519050610e0d81610de9565b92915050565b5f60208284031215610e2857610e2761087e565b5b5f610e3584828501610dff565b9150509291505056fea2646970667358221220ceba127ae0dae5ffebcd7ee26d202f77e585dc9e4a9545e0dd562cb06134a31964736f6c634300081e0033","linkReferences":{}},"methodIdentifiers":{"grantReader(uint256,address)":"602be6b2","makePublic(uint256)":"70f4616d","meta(uint256)":"cd5cfdaf","postEncrypted(uint256,bytes32)":"acd8ee49","size()":"949d225d"},"id":4}