{"abi":[{"type":"function","name":"grantTipReader","inputs":[{"name":"tipId","type":"uint256","internalType":"uint256"},{"name":"reader","type":"address","internalType":"address"}],"outputs":[],"stateMutability":"nonpayable"},{"type":"function","name":"publishTotal","inputs":[{"name":"messageId","type":"uint256","internalType":"uint256"}],"outputs":[],"stateMutability":"nonpayable"},{"type":"function","name":"recordTip","inputs":[{"name":"messageId","type":"uint256","internalType":"uint256"},{"name":"token","type":"address","internalType":"address"},{"name":"to","type":"address","internalType":"address"},{"name":"encAmount","type":"bytes32","internalType":"externalEuint64"}],"outputs":[{"name":"tipId","type":"uint256","internalType":"uint256"}],"stateMutability":"nonpayable"},{"type":"function","name":"size","inputs":[],"outputs":[{"name":"","type":"uint256","internalType":"uint256"}],"stateMutability":"view"},{"type":"event","name":"PublicTotal","inputs":[{"name":"messageId","type":"uint256","indexed":true,"internalType":"uint256"},{"name":"payload","type":"bytes","indexed":false,"internalType":"bytes"}],"anonymous":false},{"type":"event","name":"TipRecorded","inputs":[{"name":"tipId","type":"uint256","indexed":true,"internalType":"uint256"},{"name":"messageId","type":"uint256","indexed":true,"internalType":"uint256"},{"name":"from","type":"address","indexed":true,"internalType":"address"},{"name":"to","type":"address","indexed":false,"internalType":"address"},{"name":"token","type":"address","indexed":false,"internalType":"address"}],"anonymous":false}],"bytecode":{"object":"0x608060405234801561000f575f5ffd5b5061002c61002161004d60201b60201c565b61012360201b60201c565b61004861003d61013560201b60201c565b61015060201b60201c565b6103ad565b610055610331565b604051806080016040528073687820221192c5b662b25367f70076a37bc79b6c73ffffffffffffffffffffffffffffffffffffffff16815260200173848b0066793bcc60346da1f49049357399b8d59573ffffffffffffffffffffffffffffffffffffffff168152602001731364cbbf2cdf5032c47d8226a6f6fbd2afcdacac73ffffffffffffffffffffffffffffffffffffffff16815260200173bc91f3dad1a5f19f8390c400196e58073b6a0bc473ffffffffffffffffffffffffffffffffffffffff16815250905090565b6101328161016260201b60201c565b50565b5f73a02cda4ca3a71d7c46997716f4283aa851c28812905090565b61015f8161028d60201b60201c565b50565b5f6101716102e360201b60201c565b9050815f0151815f015f6101000a81548173ffffffffffffffffffffffffffffffffffffffff021916908373ffffffffffffffffffffffffffffffffffffffff1602179055508160200151816001015f6101000a81548173ffffffffffffffffffffffffffffffffffffffff021916908373ffffffffffffffffffffffffffffffffffffffff1602179055508160400151816002015f6101000a81548173ffffffffffffffffffffffffffffffffffffffff021916908373ffffffffffffffffffffffffffffffffffffffff1602179055508160600151816003015f6101000a81548173ffffffffffffffffffffffffffffffffffffffff021916908373ffffffffffffffffffffffffffffffffffffffff1602179055505050565b5f61029c61030a60201b60201c565b905081815f015f6101000a81548173ffffffffffffffffffffffffffffffffffffffff021916908373ffffffffffffffffffffffffffffffffffffffff1602179055505050565b5f7fed8d60e34876f751cc8b014c560745351147d9de11b9347c854e881b128ea600905090565b5f7f5ea69329017273582817d320489fbd94f775580e90c092699ca6f3d12fdf7d00905090565b60405180608001604052805f73ffffffffffffffffffffffffffffffffffffffff1681526020015f73ffffffffffffffffffffffffffffffffffffffff1681526020015f73ffffffffffffffffffffffffffffffffffffffff1681526020015f73ffffffffffffffffffffffffffffffffffffffff1681525090565b611122806103ba5f395ff3fe608060405234801561000f575f5ffd5b506004361061004a575f3560e01c80632ecc1b481461004e578063949d225d1461007e57806398d3ad1d1461009c578063a1eea00a146100b8575b5f5ffd5b61006860048036038101906100639190610b42565b6100d4565b6040516100759190610bb5565b60405180910390f35b610086610372565b6040516100939190610bb5565b60405180910390f35b6100b660048036038101906100b19190610bce565b61037d565b005b6100d260048036038101906100cd9190610bf9565b6103e1565b005b5f5f6100ee8360405180602001604052805f815250610546565b90505f8054905091505f6040518060c001604052803373ffffffffffffffffffffffffffffffffffffffff1681526020018673ffffffffffffffffffffffffffffffffffffffff1681526020018773ffffffffffffffffffffffffffffffffffffffff16815260200188815260200142815260200183815250908060018154018082558091505060019003905f5260205f2090600602015f909190919091505f820151815f015f6101000a81548173ffffffffffffffffffffffffffffffffffffffff021916908373ffffffffffffffffffffffffffffffffffffffff1602179055506020820151816001015f6101000a81548173ffffffffffffffffffffffffffffffffffffffff021916908373ffffffffffffffffffffffffffffffffffffffff1602179055506040820151816002015f6101000a81548173ffffffffffffffffffffffffffffffffffffffff021916908373ffffffffffffffffffffffffffffffffffffffff160217905550606082015181600301556080820151816004015560a08201518160050155505060025f8781526020019081526020015f205f9054906101000a900460ff166102e7576102a85f61055b565b60015f8881526020019081526020015f2081905550600160025f8881526020019081526020015f205f6101000a81548160ff0219169083151502179055505b61030260015f8881526020019081526020015f205482610578565b60015f8881526020019081526020015f20819055503373ffffffffffffffffffffffffffffffffffffffff1686837f69a7bfe77dcd09a735461af43e8934fdfa21edfcf7686cdbef71a45eecef1b1f8789604051610361929190610c46565b60405180910390a450949350505050565b5f5f80549050905090565b61039760015f8381526020019081526020015f20546105be565b50807f16654fd3e5d77c03ac5278a326c5683a9eceac64f6f71b2ea048bc3566d4ad1160405180602001604052805f8152506040516103d69190610cdd565b60405180910390a250565b5f805490508210610427576040517f08c379a000000000000000000000000000000000000000000000000000000000815260040161041e90610d57565b60405180910390fd5b5f5f838154811061043b5761043a610d75565b5b905f5260205f2090600602019050805f015f9054906101000a900473ffffffffffffffffffffffffffffffffffffffff1673ffffffffffffffffffffffffffffffffffffffff163373ffffffffffffffffffffffffffffffffffffffff1614806104f35750806001015f9054906101000a900473ffffffffffffffffffffffffffffffffffffffff1673ffffffffffffffffffffffffffffffffffffffff163373ffffffffffffffffffffffffffffffffffffffff16145b610532576040517f08c379a000000000000000000000000000000000000000000000000000000000815260040161052990610dec565b60405180910390fd5b6105408160050154836105d0565b50505050565b5f610553838360056105e4565b905092915050565b5f6105718267ffffffffffffffff166005610726565b9050919050565b5f610582836107d9565b6105925761058f5f61055b565b92505b61059b826107d9565b6105ab576105a85f61055b565b91505b6105b683835f6107e7565b905092915050565b5f6105c8826108b8565b819050919050565b5f6105db83836109bd565b82905092915050565b5f5f6105ee610a57565b9050806001015f9054906101000a900473ffffffffffffffffffffffffffffffffffffffff1673ffffffffffffffffffffffffffffffffffffffff1663196d0b9b863387876040518563ffffffff1660e01b81526004016106529493929190610e8c565b6020604051808303815f875af115801561066e573d5f5f3e3d5ffd5b505050506040513d601f19601f820116820180604052508101906106929190610f00565b9150805f015f9054906101000a900473ffffffffffffffffffffffffffffffffffffffff1673ffffffffffffffffffffffffffffffffffffffff16633e395cec83336040518363ffffffff1660e01b81526004016106f1929190610f2b565b5f604051808303815f87803b158015610708575f5ffd5b505af115801561071a573d5f5f3e3d5ffd5b50505050509392505050565b5f5f610730610a57565b9050806001015f9054906101000a900473ffffffffffffffffffffffffffffffffffffffff1673ffffffffffffffffffffffffffffffffffffffff16639cd07acb85856040518363ffffffff1660e01b8152600401610790929190610f52565b6020604051808303815f875af11580156107ac573d5f5f3e3d5ffd5b505050506040513d601f19601f820116820180604052508101906107d09190610f00565b91505092915050565b5f5f5f1b8214159050919050565b5f5f82156107fb57600160f81b9050610802565b5f60f81b90505b5f61080b610a57565b9050806001015f9054906101000a900473ffffffffffffffffffffffffffffffffffffffff1673ffffffffffffffffffffffffffffffffffffffff1663117b2f388787856040518463ffffffff1660e01b815260040161086d93929190610fb3565b6020604051808303815f875af1158015610889573d5f5f3e3d5ffd5b505050506040513d601f19601f820116820180604052508101906108ad9190610f00565b925050509392505050565b5f6108c1610a57565b90505f600167ffffffffffffffff8111156108df576108de610fe8565b5b60405190808252806020026020018201604052801561090d5781602001602082028036833780820191505090505b50905082815f8151811061092457610923610d75565b5b602002602001018181525050815f015f9054906101000a900473ffffffffffffffffffffffffffffffffffffffff1673ffffffffffffffffffffffffffffffffffffffff1663fadd2246826040518263ffffffff1660e01b815260040161098b91906110cc565b5f604051808303815f87803b1580156109a2575f5ffd5b505af11580156109b4573d5f5f3e3d5ffd5b50505050505050565b5f6109c6610a57565b9050805f015f9054906101000a900473ffffffffffffffffffffffffffffffffffffffff1673ffffffffffffffffffffffffffffffffffffffff1663b9496b6284846040518363ffffffff1660e01b8152600401610a25929190610f2b565b5f604051808303815f87803b158015610a3c575f5ffd5b505af1158015610a4e573d5f5f3e3d5ffd5b50505050505050565b5f7fed8d60e34876f751cc8b014c560745351147d9de11b9347c854e881b128ea600905090565b5f5ffd5b5f819050919050565b610a9481610a82565b8114610a9e575f5ffd5b50565b5f81359050610aaf81610a8b565b92915050565b5f73ffffffffffffffffffffffffffffffffffffffff82169050919050565b5f610ade82610ab5565b9050919050565b610aee81610ad4565b8114610af8575f5ffd5b50565b5f81359050610b0981610ae5565b92915050565b5f819050919050565b610b2181610b0f565b8114610b2b575f5ffd5b50565b5f81359050610b3c81610b18565b92915050565b5f5f5f5f60808587031215610b5a57610b59610a7e565b5b5f610b6787828801610aa1565b9450506020610b7887828801610afb565b9350506040610b8987828801610afb565b9250506060610b9a87828801610b2e565b91505092959194509250565b610baf81610a82565b82525050565b5f602082019050610bc85f830184610ba6565b92915050565b5f60208284031215610be357610be2610a7e565b5b5f610bf084828501610aa1565b91505092915050565b5f5f60408385031215610c0f57610c0e610a7e565b5b5f610c1c85828601610aa1565b9250506020610c2d85828601610afb565b9150509250929050565b610c4081610ad4565b82525050565b5f604082019050610c595f830185610c37565b610c666020830184610c37565b9392505050565b5f81519050919050565b5f82825260208201905092915050565b8281835e5f83830152505050565b5f601f19601f8301169050919050565b5f610caf82610c6d565b610cb98185610c77565b9350610cc9818560208601610c87565b610cd281610c95565b840191505092915050565b5f6020820190508181035f830152610cf58184610ca5565b905092915050565b5f82825260208201905092915050565b7f62616420696400000000000000000000000000000000000000000000000000005f82015250565b5f610d41600683610cfd565b9150610d4c82610d0d565b602082019050919050565b5f6020820190508181035f830152610d6e81610d35565b9050919050565b7f4e487b71000000000000000000000000000000000000000000000000000000005f52603260045260245ffd5b7f6f6e6c79207061727469657300000000000000000000000000000000000000005f82015250565b5f610dd6600c83610cfd565b9150610de182610da2565b602082019050919050565b5f6020820190508181035f830152610e0381610dca565b9050919050565b610e1381610b0f565b82525050565b7f4e487b71000000000000000000000000000000000000000000000000000000005f52602160045260245ffd5b60548110610e5757610e56610e19565b5b50565b5f819050610e6782610e46565b919050565b5f610e7682610e5a565b9050919050565b610e8681610e6c565b82525050565b5f608082019050610e9f5f830187610e0a565b610eac6020830186610c37565b8181036040830152610ebe8185610ca5565b9050610ecd6060830184610e7d565b95945050505050565b610edf81610b0f565b8114610ee9575f5ffd5b50565b5f81519050610efa81610ed6565b92915050565b5f60208284031215610f1557610f14610a7e565b5b5f610f2284828501610eec565b91505092915050565b5f604082019050610f3e5f830185610e0a565b610f4b6020830184610c37565b9392505050565b5f604082019050610f655f830185610ba6565b610f726020830184610e7d565b9392505050565b5f7fff0000000000000000000000000000000000000000000000000000000000000082169050919050565b610fad81610f79565b82525050565b5f606082019050610fc65f830186610e0a565b610fd36020830185610e0a565b610fe06040830184610fa4565b949350505050565b7f4e487b71000000000000000000000000000000000000000000000000000000005f52604160045260245ffd5b5f81519050919050565b5f82825260208201905092915050565b5f819050602082019050919050565b61104781610b0f565b82525050565b5f611058838361103e565b60208301905092915050565b5f602082019050919050565b5f61107a82611015565b611084818561101f565b935061108f8361102f565b805f5b838110156110bf5781516110a6888261104d565b97506110b183611064565b925050600181019050611092565b5085935050505092915050565b5f6020820190508181035f8301526110e48184611070565b90509291505056fea264697066735822122059abb4cc84118f9a96d2fbe94b2605e5fc48653ce1bbe1b57fc53098b4a51d8a64736f6c634300081e0033","linkReferences":{}},"methodIdentifiers":{"grantTipReader(uint256,address)":"a1eea00a","publishTotal(uint256)":"98d3ad1d","recordTip(uint256,address,address,bytes32)":"2ecc1b48","size()":"949d225d"},"id":5}