{"abi":[{"type":"function","name":"get","inputs":[{"name":"id","type":"uint256","internalType":"uint256"}],"outputs":[{"name":"sender","type":"address","internalType":"address"},{"name":"hash","type":"bytes32","internalType":"bytes32"},{"name":"cid","type":"string","internalType":"string"},{"name":"ts","type":"uint256","internalType":"uint256"},{"name":"chatId","type":"uint256","internalType":"uint256"},{"name":"kind","type":"string","internalType":"string"}],"stateMutability":"view"},{"type":"function","name":"messages","inputs":[{"name":"","type":"uint256","internalType":"uint256"}],"outputs":[{"name":"sender","type":"address","internalType":"address"},{"name":"hash","type":"bytes32","internalType":"bytes32"},{"name":"cid","type":"string","internalType":"string"},{"name":"ts","type":"uint256","internalType":"uint256"},{"name":"chatId","type":"uint256","internalType":"uint256"},{"name":"kind","type":"string","internalType":"string"}],"stateMutability":"view"},{"type":"function","name":"post","inputs":[{"name":"chatId","type":"uint256","internalType":"uint256"},{"name":"hash","type":"bytes32","internalType":"bytes32"},{"name":"cid","type":"string","internalType":"string"},{"name":"kind","type":"string","internalType":"string"}],"outputs":[{"name":"id","type":"uint256","internalType":"uint256"}],"stateMutability":"nonpayable"},{"type":"function","name":"size","inputs":[],"outputs":[{"name":"","type":"uint256","internalType":"uint256"}],"stateMutability":"view"},{"type":"event","name":"MessagePosted","inputs":[{"name":"id","type":"uint256","indexed":true,"internalType":"uint256"},{"name":"chatId","type":"uint256","indexed":true,"internalType":"uint256"},{"name":"sender","type":"address","indexed":true,"internalType":"address"},{"name":"hash","type":"bytes32","indexed":false,"internalType":"bytes32"},{"name":"cid","type":"string","indexed":false,"internalType":"string"},{"name":"kind","type":"string","indexed":false,"internalType":"string"},{"name":"ts","type":"uint256","indexed":false,"internalType":"uint256"}],"anonymous":false}],"bytecode":{"object":"0x6080604052348015600e575f5ffd5b50610cd78061001c5f395ff3fe608060405234801561000f575f5ffd5b506004361061004a575f3560e01c80630d80fefd1461004e578063949d225d146100835780639507d39a146100a1578063c6ed7e38146100d6575b5f5ffd5b61006860048036038101906100639190610637565b610106565b60405161007a96959493929190610738565b60405180910390f35b61008b610277565b60405161009891906107a5565b60405180910390f35b6100bb60048036038101906100b69190610637565b610282565b6040516100cd96959493929190610738565b60405180910390f35b6100f060048036038101906100eb9190610849565b610410565b6040516100fd91906107a5565b60405180910390f35b5f8181548110610114575f80fd5b905f5260205f2090600602015f91509050805f015f9054906101000a900473ffffffffffffffffffffffffffffffffffffffff169080600101549080600201805461015e90610919565b80601f016020809104026020016040519081016040528092919081815260200182805461018a90610919565b80156101d55780601f106101ac576101008083540402835291602001916101d5565b820191905f5260205f20905b8154815290600101906020018083116101b857829003601f168201915b5050505050908060030154908060040154908060050180546101f690610919565b80601f016020809104026020016040519081016040528092919081815260200182805461022290610919565b801561026d5780601f106102445761010080835404028352916020019161026d565b820191905f5260205f20905b81548152906001019060200180831161025057829003601f168201915b5050505050905086565b5f5f80549050905090565b5f5f60605f5f60605f5f888154811061029e5761029d610949565b5b905f5260205f2090600602019050805f015f9054906101000a900473ffffffffffffffffffffffffffffffffffffffff1681600101548260020183600301548460040154856005018380546102f290610919565b80601f016020809104026020016040519081016040528092919081815260200182805461031e90610919565b80156103695780601f1061034057610100808354040283529160200191610369565b820191905f5260205f20905b81548152906001019060200180831161034c57829003601f168201915b5050505050935080805461037c90610919565b80601f01602080910402602001604051908101604052809291908181526020018280546103a890610919565b80156103f35780601f106103ca576101008083540402835291602001916103f3565b820191905f5260205f20905b8154815290600101906020018083116103d657829003601f168201915b505050505090509650965096509650965096505091939550919395565b5f5f8054905090505f6040518060c001604052803373ffffffffffffffffffffffffffffffffffffffff16815260200188815260200187878080601f0160208091040260200160405190810160405280939291908181526020018383808284375f81840152601f19601f82011690508083019250505050505050815260200142815260200189815260200185858080601f0160208091040260200160405190810160405280939291908181526020018383808284375f81840152601f19601f82011690508083019250505050505050815250908060018154018082558091505060019003905f5260205f2090600602015f909190919091505f820151815f015f6101000a81548173ffffffffffffffffffffffffffffffffffffffff021916908373ffffffffffffffffffffffffffffffffffffffff16021790555060208201518160010155604082015181600201908161056b9190610b43565b50606082015181600301556080820151816004015560a08201518160050190816105959190610b43565b5050503373ffffffffffffffffffffffffffffffffffffffff1687827f58a6d249bb6be357add039d165ea1e7181d4b59965af1613ef0ff99733d87c468989898989426040516105ea96959493929190610c4c565b60405180910390a49695505050505050565b5f5ffd5b5f5ffd5b5f819050919050565b61061681610604565b8114610620575f5ffd5b50565b5f813590506106318161060d565b92915050565b5f6020828403121561064c5761064b6105fc565b5b5f61065984828501610623565b91505092915050565b5f73ffffffffffffffffffffffffffffffffffffffff82169050919050565b5f61068b82610662565b9050919050565b61069b81610681565b82525050565b5f819050919050565b6106b3816106a1565b82525050565b5f81519050919050565b5f82825260208201905092915050565b8281835e5f83830152505050565b5f601f19601f8301169050919050565b5f6106fb826106b9565b61070581856106c3565b93506107158185602086016106d3565b61071e816106e1565b840191505092915050565b61073281610604565b82525050565b5f60c08201905061074b5f830189610692565b61075860208301886106aa565b818103604083015261076a81876106f1565b90506107796060830186610729565b6107866080830185610729565b81810360a083015261079881846106f1565b9050979650505050505050565b5f6020820190506107b85f830184610729565b92915050565b6107c7816106a1565b81146107d1575f5ffd5b50565b5f813590506107e2816107be565b92915050565b5f5ffd5b5f5ffd5b5f5ffd5b5f5f83601f840112610809576108086107e8565b5b8235905067ffffffffffffffff811115610826576108256107ec565b5b602083019150836001820283011115610842576108416107f0565b5b9250929050565b5f5f5f5f5f5f60808789031215610863576108626105fc565b5b5f61087089828a01610623565b965050602061088189828a016107d4565b955050604087013567ffffffffffffffff8111156108a2576108a1610600565b5b6108ae89828a016107f4565b9450945050606087013567ffffffffffffffff8111156108d1576108d0610600565b5b6108dd89828a016107f4565b92509250509295509295509295565b7f4e487b71000000000000000000000000000000000000000000000000000000005f52602260045260245ffd5b5f600282049050600182168061093057607f821691505b602082108103610943576109426108ec565b5b50919050565b7f4e487b71000000000000000000000000000000000000000000000000000000005f52603260045260245ffd5b7f4e487b71000000000000000000000000000000000000000000000000000000005f52604160045260245ffd5b5f819050815f5260205f209050919050565b5f6020601f8301049050919050565b5f82821b905092915050565b5f600883026109ff7fffffffffffffffffffffffffffffffffffffffffffffffffffffffffffffffff826109c4565b610a0986836109c4565b95508019841693508086168417925050509392505050565b5f819050919050565b5f610a44610a3f610a3a84610604565b610a21565b610604565b9050919050565b5f819050919050565b610a5d83610a2a565b610a71610a6982610a4b565b8484546109d0565b825550505050565b5f5f905090565b610a88610a79565b610a93818484610a54565b505050565b5b81811015610ab657610aab5f82610a80565b600181019050610a99565b5050565b601f821115610afb57610acc816109a3565b610ad5846109b5565b81016020851015610ae4578190505b610af8610af0856109b5565b830182610a98565b50505b505050565b5f82821c905092915050565b5f610b1b5f1984600802610b00565b1980831691505092915050565b5f610b338383610b0c565b9150826002028217905092915050565b610b4c826106b9565b67ffffffffffffffff811115610b6557610b64610976565b5b610b6f8254610919565b610b7a828285610aba565b5f60209050601f831160018114610bab575f8415610b99578287015190505b610ba38582610b28565b865550610c0a565b601f198416610bb9866109a3565b5f5b82811015610be057848901518255600182019150602085019450602081019050610bbb565b86831015610bfd5784890151610bf9601f891682610b0c565b8355505b6001600288020188555050505b505050505050565b828183375f83830152505050565b5f610c2b83856106c3565b9350610c38838584610c12565b610c41836106e1565b840190509392505050565b5f608082019050610c5f5f8301896106aa565b8181036020830152610c72818789610c20565b90508181036040830152610c87818587610c20565b9050610c966060830184610729565b97965050505050505056fea2646970667358221220a39d5032e0dcddc5c027cdec5d20940e29ade0d82e2e0ee4f5171145019586df64736f6c634300081e0033","linkReferences":{}},"methodIdentifiers":{"get(uint256)":"9507d39a","messages(uint256)":"0d80fefd","post(uint256,bytes32,string,string)":"c6ed7e38","size()":"949d225d"},"id":1}