{"abi":[{"type":"function","name":"messages","inputs":[{"name":"","type":"uint256","internalType":"uint256"}],"outputs":[{"name":"sender","type":"address","internalType":"address"},{"name":"hash","type":"bytes32","internalType":"bytes32"},{"name":"cid","type":"string","internalType":"string"},{"name":"ts","type":"uint256","internalType":"uint256"},{"name":"chatId","type":"uint256","internalType":"uint256"}],"stateMutability":"view"},{"type":"function","name":"post","inputs":[{"name":"chatId","type":"uint256","internalType":"uint256"},{"name":"hash","type":"bytes32","internalType":"bytes32"},{"name":"cid","type":"string","internalType":"string"}],"outputs":[{"name":"id","type":"uint256","internalType":"uint256"}],"stateMutability":"nonpayable"},{"type":"event","name":"MessagePosted","inputs":[{"name":"id","type":"uint256","indexed":true,"internalType":"uint256"},{"name":"chatId","type":"uint256","indexed":true,"internalType":"uint256"},{"name":"sender","type":"address","indexed":true,"internalType":"address"},{"name":"hash","type":"bytes32","indexed":false,"internalType":"bytes32"},{"name":"cid","type":"string","indexed":false,"internalType":"string"}],"anonymous":false}],"bytecode":{"object":"0x6080604052348015600e575f5ffd5b506109488061001c5f395ff3fe608060405234801561000f575f5ffd5b5060043610610034575f3560e01c80630d80fefd146100385780633fc0ab781461006c575b5f5ffd5b610052600480360381019061004d9190610341565b61009c565b604051610063959493929190610442565b60405180910390f35b61008660048036038101906100819190610525565b610181565b6040516100939190610596565b60405180910390f35b5f81815481106100aa575f80fd5b905f5260205f2090600502015f91509050805f015f9054906101000a900473ffffffffffffffffffffffffffffffffffffffff16908060010154908060020180546100f4906105dc565b80601f0160208091040260200160405190810160405280929190818152602001828054610120906105dc565b801561016b5780601f106101425761010080835404028352916020019161016b565b820191905f5260205f20905b81548152906001019060200180831161014e57829003601f168201915b5050505050908060030154908060040154905085565b5f5f8054905090505f6040518060a001604052803373ffffffffffffffffffffffffffffffffffffffff16815260200186815260200185858080601f0160208091040260200160405190810160405280939291908181526020018383808284375f81840152601f19601f82011690508083019250505050505050815260200142815260200187815250908060018154018082558091505060019003905f5260205f2090600502015f909190919091505f820151815f015f6101000a81548173ffffffffffffffffffffffffffffffffffffffff021916908373ffffffffffffffffffffffffffffffffffffffff16021790555060208201518160010155604082015181600201908161029391906107d9565b50606082015181600301556080820151816004015550503373ffffffffffffffffffffffffffffffffffffffff1685827f96160b701247b27d5577ee8d142b2c5bfe0fa86645b47cd73eee5bfdbdf130e28787876040516102f6939291906108e2565b60405180910390a4949350505050565b5f5ffd5b5f5ffd5b5f819050919050565b6103208161030e565b811461032a575f5ffd5b50565b5f8135905061033b81610317565b92915050565b5f6020828403121561035657610355610306565b5b5f6103638482850161032d565b91505092915050565b5f73ffffffffffffffffffffffffffffffffffffffff82169050919050565b5f6103958261036c565b9050919050565b6103a58161038b565b82525050565b5f819050919050565b6103bd816103ab565b82525050565b5f81519050919050565b5f82825260208201905092915050565b8281835e5f83830152505050565b5f601f19601f8301169050919050565b5f610405826103c3565b61040f81856103cd565b935061041f8185602086016103dd565b610428816103eb565b840191505092915050565b61043c8161030e565b82525050565b5f60a0820190506104555f83018861039c565b61046260208301876103b4565b818103604083015261047481866103fb565b90506104836060830185610433565b6104906080830184610433565b9695505050505050565b6104a3816103ab565b81146104ad575f5ffd5b50565b5f813590506104be8161049a565b92915050565b5f5ffd5b5f5ffd5b5f5ffd5b5f5f83601f8401126104e5576104e46104c4565b5b8235905067ffffffffffffffff811115610502576105016104c8565b5b60208301915083600182028301111561051e5761051d6104cc565b5b9250929050565b5f5f5f5f6060858703121561053d5761053c610306565b5b5f61054a8782880161032d565b945050602061055b878288016104b0565b935050604085013567ffffffffffffffff81111561057c5761057b61030a565b5b610588878288016104d0565b925092505092959194509250565b5f6020820190506105a95f830184610433565b92915050565b7f4e487b71000000000000000000000000000000000000000000000000000000005f52602260045260245ffd5b5f60028204905060018216806105f357607f821691505b602082108103610606576106056105af565b5b50919050565b7f4e487b71000000000000000000000000000000000000000000000000000000005f52604160045260245ffd5b5f819050815f5260205f209050919050565b5f6020601f8301049050919050565b5f82821b905092915050565b5f600883026106957fffffffffffffffffffffffffffffffffffffffffffffffffffffffffffffffff8261065a565b61069f868361065a565b95508019841693508086168417925050509392505050565b5f819050919050565b5f6106da6106d56106d08461030e565b6106b7565b61030e565b9050919050565b5f819050919050565b6106f3836106c0565b6107076106ff826106e1565b848454610666565b825550505050565b5f5f905090565b61071e61070f565b6107298184846106ea565b505050565b5b8181101561074c576107415f82610716565b60018101905061072f565b5050565b601f8211156107915761076281610639565b61076b8461064b565b8101602085101561077a578190505b61078e6107868561064b565b83018261072e565b50505b505050565b5f82821c905092915050565b5f6107b15f1984600802610796565b1980831691505092915050565b5f6107c983836107a2565b9150826002028217905092915050565b6107e2826103c3565b67ffffffffffffffff8111156107fb576107fa61060c565b5b61080582546105dc565b610810828285610750565b5f60209050601f831160018114610841575f841561082f578287015190505b61083985826107be565b8655506108a0565b601f19841661084f86610639565b5f5b8281101561087657848901518255600182019150602085019450602081019050610851565b86831015610893578489015161088f601f8916826107a2565b8355505b6001600288020188555050505b505050505050565b828183375f83830152505050565b5f6108c183856103cd565b93506108ce8385846108a8565b6108d7836103eb565b840190509392505050565b5f6040820190506108f55f8301866103b4565b81810360208301526109088184866108b6565b905094935050505056fea264697066735822122034dd203db0baa9f4b458f5308f5537c5ceda494ff9e5c87822866bdc76f606e764736f6c634300081e0033","linkReferences":{}},"methodIdentifiers":{"messages(uint256)":"0d80fefd","post(uint256,bytes32,string)":"3fc0ab78"},"id":1}