{"abi":[{"type":"function","name":"tipERC20","inputs":[{"name":"messageId","type":"uint256","internalType":"uint256"},{"name":"token","type":"address","internalType":"address"},{"name":"to","type":"address","internalType":"address"},{"name":"amount","type":"uint256","internalType":"uint256"}],"outputs":[],"stateMutability":"nonpayable"},{"type":"event","name":"Tipped","inputs":[{"name":"messageId","type":"uint256","indexed":true,"internalType":"uint256"},{"name":"token","type":"address","indexed":true,"internalType":"address"},{"name":"from","type":"address","indexed":true,"internalType":"address"},{"name":"to","type":"address","indexed":false,"internalType":"address"},{"name":"amount","type":"uint256","indexed":false,"internalType":"uint256"}],"anonymous":false}],"bytecode":{"object":"0x6080604052348015600e575f5ffd5b506103f08061001c5f395ff3fe608060405234801561000f575f5ffd5b5060043610610029575f3560e01c8063d39616ba1461002d575b5f5ffd5b61004760048036038101906100429190610204565b610049565b005b8273ffffffffffffffffffffffffffffffffffffffff166323b872dd3384846040518463ffffffff1660e01b815260040161008693929190610286565b6020604051808303815f875af11580156100a2573d5f5f3e3d5ffd5b505050506040513d601f19601f820116820180604052508101906100c691906102f0565b610105576040517f08c379a00000000000000000000000000000000000000000000000000000000081526004016100fc90610375565b60405180910390fd5b3373ffffffffffffffffffffffffffffffffffffffff168373ffffffffffffffffffffffffffffffffffffffff16857f0b12844093754b55cf770a12959ad4dd640872d5f1d495928d110a5c4baa2de58585604051610165929190610393565b60405180910390a450505050565b5f5ffd5b5f819050919050565b61018981610177565b8114610193575f5ffd5b50565b5f813590506101a481610180565b92915050565b5f73ffffffffffffffffffffffffffffffffffffffff82169050919050565b5f6101d3826101aa565b9050919050565b6101e3816101c9565b81146101ed575f5ffd5b50565b5f813590506101fe816101da565b92915050565b5f5f5f5f6080858703121561021c5761021b610173565b5b5f61022987828801610196565b945050602061023a878288016101f0565b935050604061024b878288016101f0565b925050606061025c87828801610196565b91505092959194509250565b610271816101c9565b82525050565b61028081610177565b82525050565b5f6060820190506102995f830186610268565b6102a66020830185610268565b6102b36040830184610277565b949350505050565b5f8115159050919050565b6102cf816102bb565b81146102d9575f5ffd5b50565b5f815190506102ea816102c6565b92915050565b5f6020828403121561030557610304610173565b5b5f610312848285016102dc565b91505092915050565b5f82825260208201905092915050565b7f7472616e73666572206661696c656400000000000000000000000000000000005f82015250565b5f61035f600f8361031b565b915061036a8261032b565b602082019050919050565b5f6020820190508181035f83015261038c81610353565b9050919050565b5f6040820190506103a65f830185610268565b6103b36020830184610277565b939250505056fea2646970667358221220392794e0fc5c41b8e675c2466c190bff8dd5f2d41d723d3749aebf8b4e6df4a164736f6c634300081e0033","linkReferences":{}},"methodIdentifiers":{"tipERC20(uint256,address,address,uint256)":"d39616ba"},"id":3}